:020000040800F2
:10000000F80800209D050008FD050008FD05000812
:10001000FD050008FD050008FD05000800000000C2
:10002000000000000000000000000000FD050008C6
:10003000FD05000800000000FD0500086102000841
:10004000FD050008FD050008FD050008FD05000888
:10005000FD050008FD050008FD050008FD05000878
:10006000FD050008FD050008FD050008FD05000868
:10007000FD050008FD050008FD050008FD05000858
:10008000FD050008FD050008FD050008FD05000848
:10009000FD050008FD050008FD050008FD05000838
:1000A000FD050008FD050008FD050008FD05000828
:1000B000FD050008FD050008FD050008FD05000818
:1000C000FD050008FD050008FD050008FD05000808
:1000D000FD05000821070008FD050008FD050008D2
:1000E000FD050008FD050008FD050008FD050008E8
:1000F000FD050008FD050008FD050008FD050008D8
:10010000FD050008FD050008FD050008FD050008C7
:10011000FD050008FD050008FD050008FD050008B7
:10012000FD050008FD050008FD050008FD050008A7
:10013000FD050008FD050008FD050008FD05000897
:10014000FD050008FD050008FD050008FD05000887
:10015000FD050008FD050008FD050008FD05000877
:10016000FD050008FD050008FD050008FD05000867
:10017000FD050008FD050008FD050008FD05000857
:10018000FD050008FD05000880B483B000AF0346FC
:100190003960FB7197F90730002B0BDA0D49FB79B9
:1001A00003F00F03043B3A68D2B21201D2B20B44FF
:1001B0001A7609E0084997F907303A68D2B2120175
:1001C000D2B20B4483F8002300BF0C37BD4680BC7D
:1001D000704700BF00ED00E000E100E080B582B0B4
:1001E00000AF78607B68B3F1807F01D3012311E019
:1001F0000A4A7B6823F07F43013B53600F214FF095
:10020000FF30FFF7C1FF054B00229A60034B072226
:100210001A60002318460837BD4680BD10E000E094
:1002200080B582B000AF78600A4B1B680A4AA2FB17
:1002300003239B091846FFF7D1FF084B00221A60E1
:1002400000BF064B1A687B689A42FAD100BF083794
:10025000BD4680BD10000020D34D62102400002058
:1002600080B400AF044B1B680133034A136000BF26
:10027000BD4680BC704700BF2400002080B58AB016
:1002800000AF7860396000237B6200233B6200236B
:10029000FB610023BB617B681B8A9BB27B627B6A2C
:1002A00023F440537B623B68DB881A467B6A134326
:1002B0007B627B6A9AB27B681A827B689B899BB25D
:1002C0007B627B6A23F4B05323F00C037B623B68B0
:1002D0009A883B681B8913439AB23B685B89134336
:1002E0009BB21A467B6A13437B627B6A9AB27B6835
:1002F0009A817B689B8A9BB27B627B6A23F4407302
:100300007B623B689B891A467B6A13437B627B6AEC
:100310009AB27B689A8207F10803184600F070FAD7
:100320007B68314A934203D07B68304A934202D1C2
:100330007B693B6201E03B693B627B689B899BB2C6
:100340009BB21BB2002B0CDA3A6A13469B00134493
:100350009A001A443B681B685B00B2FBF3F3FB6135
:100360000BE03A6A13469B0013449A001A443B6818
:100370001B689B00B2FBF3F3FB61FB691C4AA2FB09
:1003800003235B091B017B627B6A1B09642202FB5E
:1003900003F3FA69D31ABB617B689B899BB29BB25A
:1003A0001BB2002B0CDABB69DB003233104AA2FB14
:1003B00003235B0903F007037A6A13437B620BE0B4
:1003C000BB691B0132330A4AA2FB03235B0903F01A
:1003D0000F037A6A13437B627B6A9AB27B681A8145
:1003E00000BF2837BD4680BD001001400014014009
:1003F0001F85EB5180B483B000AF78600B46FB7073
:10040000FB78002B08D07B689B899BB243F4005398
:100410009AB27B689A8107E07B689B899BB223F440
:1004200000539AB27B689A8100BF0C37BD4680BCEE
:10043000704700BF80B483B000AF78600B467B800C
:100440007B88C3F308039AB27B689A8000BF0C379D
:10045000BD4680BC704700BF80B487B000AF7860F5
:100460000B467B8013467B7000233B610023FB60BF
:100470000023BB6000237B617B687B617B88DBB2F0
:100480005B09DBB23B617B8803F01F03FB60012249
:10049000FB6802FA03F3BB603B69012B03D17B6964
:1004A0000C337B6109E03B69022B03D17B6910337C
:1004B0007B6102E07B6914337B617B78002B06D083
:1004C0007B697A691168BA680A431A6006E07B6939
:1004D0007A691168BA68D2430A401A6000BF1C37B3
:1004E000BD4680BC704700BF80B487B000AF786065
:1004F0000B467B800023FB6000237B610023BB60F5
:100500000023FB747B88DBB25B09DBB2BB607B88BA
:1005100003F01F037B6101227B6902FA03F37B6115
:10052000BB68012B07D17B689B899BB21A467B690C
:1005300013407B6111E0BB68022B07D17B681B8AEB
:100540009BB21A467B6913407B6106E07B689B8AFD
:100550009BB21A467B6913407B617B881B0A9BB266
:10056000FB600122FB6802FA03F3FB607B681B88D7
:100570009BB21A46FB681340FB607B69002B05D0D9
:10058000FB68002B02D00123FB7401E00023FB7405
:10059000FB7C18461C37BD4680BC704780B582B0D6
:1005A00000AF114B7B60114B3B6007E03B681A1DAD
:1005B0003A607A68111D796012681A603B680C4ACB
:1005C0009342F3D30B480C494FF000028842B8BF66
:1005D00040F8042BFADB00F0E1FA00F0FDF800BF70
:1005E0000837BD4680BD00BFAC0D000800000020EC
:1005F0002400002024000020F400002080B400AF7C
:10060000FEE700BF80B58AB000AF78600121082006
:1006100000F0A0F92D4B4FF0AA421A602B4B4FF07F
:10062000FF329A600121102000F0B2F9012102206E
:1006300000F090F9C0233B62022387F824300223A4
:1006400087F82530002387F82630012387F82730E4
:1006500007F1200319461E4800F0B8F907220621C9
:100660001B4800F053FA07220721194800F04EFA00
:100670004FF416533B610023BB820023FB8200230F
:100680003B830023BB830C237B8307F110031946B4
:100690001048FFF7F3FD012240F225510D48FFF706
:1006A000DBFE25233B7300237B730023BB730123F5
:1006B000FB7307F10C03184600F018FB01210548F5
:1006C000FFF798FE00BF2837BD4680BD000C0240F2
:1006D000000402400010014080B582B000AF786095
:1006E000396013E000BF7B681B889BB203F04003B6
:1006F000002BF8D03B681B78DBB29BB219467868B8
:10070000FFF798FE3B685A1C3A601B783B681B78E1
:10071000DBB2002BE6D100BF0837BD4680BD00BF6D
:1007200080B500AF40F225512648FFF7DDFE0346B5
:10073000002B45D0234B9B889BB2DAB2224B1A7018
:10074000214B1B780A2B0BD0204B1B681E4A1178BB
:100750001F4AD1541D4B1B6801331C4A13600BE028
:100760001A4B1B681A4A0021D15419491548FFF742
:10077000B3FF164B00221A60134B1B78312B04D1A8
:100780004FF48051134800F0AFF90F4B1B78322B18
:1007900004D14FF400510F4800F0A6F90A4B1B7822
:1007A000332B04D14FF480410A4800F09DF9064BE9
:1007B0001B78342B04D14FF40041064800F094F923
:1007C00000BF80BD00100140F00000202400002088
:1007D0008C000020000C024080B588B000AF4FF4C0
:1007E0001650FFF70FFF4FF47A70FFF719FD034B18
:1007F0001B680133014A1360F5E700BF24000020A5
:1008000080B489B000AF78600023BB6100237B61B6
:100810000023FB6102233B610023FB600223BB60DA
:10082000484B9B6803F00C03BB61BB69042B07D0EA
:10083000082B09D0002B3FD17B68434A1A603FE068
:100840007B68424A1A603BE03E4B5B6803F48003DE
:100850009B0DFB603B4B5B6803F03F03BB60FB6899
:10086000002B0DD0394ABB68B2FBF3F2354B596807
:1008700047F6C0730B409B0903FB02F3FB610CE0DE
:10088000314ABB68B2FBF3F22E4B596847F6C0738E
:100890000B409B0903FB02F3FB612A4B5B6803F4EB
:1008A00040331B0C01335B003B61FA693B69B2FBCF
:1008B000F3F27B681A6003E07B68234A1A6000BF8A
:1008C000204B9B6803F0F003BB61BB691B09BB6154
:1008D0001F4ABB6913441B78DBB27B617B681A68D3
:1008E0007B69DA407B685A60164B9B6803F4E053DF
:1008F000BB61BB699B0ABB61154ABB6913441B788A
:10090000DBB27B617B685A687B69DA407B689A60FE
:100910000C4B9B6803F46043BB61BB695B0BBB6121
:100920000B4ABB6913441B78DBB27B617B685A6856
:100930007B69DA407B68DA6000BF2437BD4680BC43
:10094000704700BF003802400024F40000127A0013
:100950000000002080B483B000AF78600B46FB70CD
:10096000FB78002B06D00949084B1A6B7B681343B0
:100970000B6306E00549054B1A6B7B68DB431340AC
:100980000B6300BF0C37BD4680BC70470038024087
:1009900080B483B000AF78600B46FB70FB78002B0F
:1009A00006D00949084B5A6C7B6813434B6406E038
:1009B0000549054B5A6C7B68DB4313404B6400BF11
:1009C0000C37BD4680BC70470038024080B487B009
:1009D00000AF7860396000237B6100233B61002316
:1009E000FB6000237B6176E001227B6902FA03F35E
:1009F0003B613B681A683B691340FB60FA683B69DE
:100A00009A4265D17B681A687B695B00032101FA11
:100A100003F3DB431A407B681A607B681A683B6803
:100A20001B7919467B695B0001FA03F31A437B6863
:100A30001A603B681B79012B03D03B681B79022BA2
:100A40002ED17B689A687B695B00032101FA03F36E
:100A5000DB431A407B689A607B689A683B685B79E5
:100A600019467B695B0001FA03F31A437B689A60BD
:100A70007B685A687B699BB2012101FA03F3DB436F
:100A80001A407B685A607B685A683B689B791946B4
:100A90007B699BB201FA03F39BB21A437B685A60ED
:100AA0007B68DA687B699BB25B00032101FA03F380
:100AB000DB431A407B68DA607B68DA683B68DB7985
:100AC00019467B695B0001FA03F31A437B68DA601D
:100AD0007B6901337B617B690F2B85D900BF1C3794
:100AE000BD4680BC704700BF80B483B000AF786063
:100AF0000B467B807B685A697B885A407B685A61C9
:100B000000BF0C37BD4680BC704700BF80B485B0C5
:100B100000AF78600B467B8013467B700023FB6040
:100B20000023BB607A787B8803F007039B0002FAFE
:100B300003F3FB607B88DB089BB218467B88DB08ED
:100B40009BB21A467B68083253F822207B8803F058
:100B500007039B000F2101FA03F3DB4302EA0301C1
:100B60007B6800F1080243F822107B88DB089BB207
:100B70001A467B68083253F82220FB681343BB6097
:100B80007B88DB089BB21A467B680832B96843F859
:100B9000221000BF1437BD4680BC704780B500AF3F
:100BA000124A124B1B6843F0010313600F4B0022E3
:100BB0009A600E4A0D4B1B6823F0847323F4803334
:100BC00013600A4B0A4A5A60084A084B1B6823F410
:100BD00080231360054B0022DA6000F00DF8054B0E
:100BE0004FF000629A6000BF80BD00BF0038024035
:100BF0001030002400ED00E080B483B000AF00238B
:100C00007B6000233B60354A344B1B6843F48033E0
:100C10001360324B1B6803F400333B607B68013385
:100C20007B603B68002B03D17B68B3F5A06FF0D1EC
:100C30002A4B1B6803F40033002B02D001233B60D6
:100C400001E000233B603B68012B42D1234A234B48
:100C50001B6C43F080531364214A214B1B6843F4FF
:100C6000804313601D4A1D4B9B6893601B4A1B4BBE
:100C70009B6843F400439360184A184B9B6843F405
:100C8000A0539360154B174A5A60144A134B1B68C4
:100C900043F08073136000BF104B1B6803F00073B8
:100CA000002BF9D0104B40F205621A600B4A0B4B37
:100CB0009B6823F003039360084A084B9B6843F04A
:100CC0000203936000BF054B9B6803F00C03082BE5
:100CD000F9D100BF0C37BD4680BC704700380240D8
:100CE0000070004008544007003C024080B485B0CA
:100CF00000AF78600023FB730023BB730F237B736B
:100D00007B68DB78002B38D0264BDB68DB4303F4B1
:100D1000E0631B0AFB73FB7BC3F10403BB737A7BA9
:100D2000FB7B42FA03F37B737B685B781A46BB7BE1
:100D300002FA03F3FB737B689A787B7B1340DAB289
:100D4000FB7B1343FB73FB7B1B01FB73164A7B6826
:100D50001B781344FA7B83F80023134A7B681B78C3
:100D60005B09DBB218467B681B7803F01F03012187
:100D700001FA03F342F820300FE00B497B681B783F
:100D80005B09DBB218467B681B7803F01F03012266
:100D90009A4000F1200341F8232000BF1437BD46DC
:0C0DA00080BC704700ED00E000E100E0C6
:100DAC000000000001020304010203040607080905
:100DBC00007A030A00000000000000000102030496
:040DCC000607080905
:0400000508000000EF
:00000001FF
